{
  "contractName": "CappedProperty",
  "abi": [
    {
      "constant": true,
      "inputs": [
        {
          "name": "caller",
          "type": "address"
        }
      ],
      "name": "hasEnded",
      "outputs": [
        {
          "name": "",
          "type": "bool"
        }
      ],
      "payable": false,
      "stateMutability": "view",
      "type": "function"
    },
    {
      "constant": true,
      "inputs": [
        {
          "name": "caller",
          "type": "address"
        },
        {
          "name": "beneficiary",
          "type": "address"
        },
        {
          "name": "value",
          "type": "uint256"
        }
      ],
      "name": "validPurchase",
      "outputs": [
        {
          "name": "",
          "type": "bool"
        }
      ],
      "payable": false,
      "stateMutability": "view",
      "type": "function"
    },
    {
      "constant": true,
      "inputs": [],
      "name": "cap",
      "outputs": [
        {
          "name": "",
          "type": "uint256"
        }
      ],
      "payable": false,
      "stateMutability": "view",
      "type": "function"
    },
    {
      "inputs": [
        {
          "name": "_cap",
          "type": "uint256"
        }
      ],
      "payable": false,
      "stateMutability": "nonpayable",
      "type": "constructor"
    }
  ],
  "bytecode": "0x6060604052341561000f57600080fd5b6040516020806103298339810160405280805190602001909190505080600081905550506102e7806100426000396000f300606060405260043610610057576000357c0100000000000000000000000000000000000000000000000000000000900463ffffffff168063239e883a1461005c578063270ae041146100ad578063355274ea14610126575b600080fd5b341561006757600080fd5b610093600480803573ffffffffffffffffffffffffffffffffffffffff1690602001909190505061014f565b604051808215151515815260200191505060405180910390f35b34156100b857600080fd5b61010c600480803573ffffffffffffffffffffffffffffffffffffffff1690602001909190803573ffffffffffffffffffffffffffffffffffffffff169060200190919080359060200190919050506101e9565b604051808215151515815260200191505060405180910390f35b341561013157600080fd5b610139610297565b6040518082815260200191505060405180910390f35b6000806000548373ffffffffffffffffffffffffffffffffffffffff16634042b66f6000604051602001526040518163ffffffff167c0100000000000000000000000000000000000000000000000000000000028152600401602060405180830381600087803b15156101c157600080fd5b6102c65a03f115156101d257600080fd5b505050604051805190501015905080915050919050565b600080600054610288848773ffffffffffffffffffffffffffffffffffffffff16634042b66f6000604051602001526040518163ffffffff167c0100000000000000000000000000000000000000000000000000000000028152600401602060405180830381600087803b151561025f57600080fd5b6102c65a03f1151561027057600080fd5b5050506040518051905061029d90919063ffffffff16565b11159050809150509392505050565b60005481565b60008082840190508381101515156102b157fe5b80915050929150505600a165627a7a723058203e759f50b8295442d17152f50b8ce5afd3ec2b62c181012da32615df34cc47670029",
  "source": "pragma solidity ^0.4.18;\n\nimport 'zeppelin-solidity/contracts/math/SafeMath.sol';\nimport './CrowdsaleProperty.sol';\n\ncontract CappedProperty is CrowdsaleProperty{\n  using SafeMath for uint256;\n\n  uint256 public cap;\n\n  function CappedProperty(uint256 _cap) public {\n   cap = _cap;\n  }\n\n  //this one needed internal -> public\n  function validPurchase(Crowdsale caller, address beneficiary, uint256 value) public view returns (bool) {\n   bool withinCap = caller.weiRaised().add(value) <= cap;\n   return withinCap;\n  }\n\n  function hasEnded(Crowdsale caller) public view returns (bool) {\n   bool capReached = caller.weiRaised() >= cap;\n   return capReached;\n  }\n\n}\n",
  "sourcePath": "/Users/alejo/Google Drive/Projects/ZWtest/composite-crowdsale/contracts/CappedProperty.sol",
  "compiler": {
    "name": "solc",
    "version": "0.4.18+commit.9cf6e910.Emscripten.clang"
  },
  "schemaVersion": "1.0.1",
  "updatedAt": "2017-12-03T20:33:05.032Z"
}