{
  "contractName": "CappedProperty",
  "abi": [
    {
      "constant": true,
      "inputs": [
        {
          "name": "purchaser",
          "type": "address"
        },
        {
          "name": "value",
          "type": "uint256"
        }
      ],
      "name": "validPurchase",
      "outputs": [
        {
          "name": "",
          "type": "bool"
        }
      ],
      "payable": false,
      "stateMutability": "view",
      "type": "function"
    },
    {
      "constant": true,
      "inputs": [],
      "name": "cap",
      "outputs": [
        {
          "name": "",
          "type": "uint256"
        }
      ],
      "payable": false,
      "stateMutability": "view",
      "type": "function"
    },
    {
      "constant": true,
      "inputs": [],
      "name": "hasEnded",
      "outputs": [
        {
          "name": "",
          "type": "bool"
        }
      ],
      "payable": false,
      "stateMutability": "view",
      "type": "function"
    },
    {
      "inputs": [
        {
          "name": "_cap",
          "type": "uint256"
        }
      ],
      "payable": false,
      "stateMutability": "nonpayable",
      "type": "constructor"
    }
  ],
  "bytecode": "0x6060604052341561000f57600080fd5b6040516020806102ef8339810160405280805190602001909190505080600081905550506102ad806100426000396000f300606060405260043610610057576000357c0100000000000000000000000000000000000000000000000000000000900463ffffffff1680632a6033bd1461005c578063355274ea146100b6578063ecb70fb7146100df575b600080fd5b341561006757600080fd5b61009c600480803573ffffffffffffffffffffffffffffffffffffffff1690602001909190803590602001909190505061010c565b604051808215151515815260200191505060405180910390f35b34156100c157600080fd5b6100c96101bf565b6040518082815260200191505060405180910390f35b34156100ea57600080fd5b6100f26101c5565b604051808215151515815260200191505060405180910390f35b60008060003391506000546101b0858473ffffffffffffffffffffffffffffffffffffffff16634042b66f6000604051602001526040518163ffffffff167c0100000000000000000000000000000000000000000000000000000000028152600401602060405180830381600087803b151561018757600080fd5b6102c65a03f1151561019857600080fd5b5050506040518051905061026390919063ffffffff16565b11159050809250505092915050565b60005481565b60008060003391506000548273ffffffffffffffffffffffffffffffffffffffff16634042b66f6000604051602001526040518163ffffffff167c0100000000000000000000000000000000000000000000000000000000028152600401602060405180830381600087803b151561023c57600080fd5b6102c65a03f1151561024d57600080fd5b5050506040518051905010159050809250505090565b600080828401905083811015151561027757fe5b80915050929150505600a165627a7a723058204104a03f2d1d90e82f814954cb63f44debe38369aa806833b00a009031770fdc0029",
  "source": "pragma solidity ^0.4.18;\n\nimport 'zeppelin-solidity/contracts/math/SafeMath.sol';\nimport './ValidationProperty.sol';\n\ncontract CappedProperty is ValidationProperty{\n  using SafeMath for uint256;\n\n  uint256 public cap;\n\n  function CappedProperty(uint256 _cap) public {\n   cap = _cap;\n  }\n\n  //this one needed internal -> public\n  function validPurchase(address purchaser, uint256 value) public view returns (bool) {\n    Crowdsale caller = Crowdsale(msg.sender);\n    bool withinCap = caller.weiRaised().add(value) <= cap;\n    return withinCap;\n  }\n\n  function hasEnded() public view returns (bool) {\n    Crowdsale caller = Crowdsale(msg.sender);\n    bool capReached = caller.weiRaised() >= cap;\n    return capReached;\n  }\n\n}\n",
  "sourcePath": "/Users/alejo/Projects/Crypto/ZWtest/contracts/CappedProperty.sol",
  "compiler": {
    "name": "solc",
    "version": "0.4.18+commit.9cf6e910.Emscripten.clang"
  },
  "schemaVersion": "1.0.1",
  "updatedAt": "2017-12-08T22:11:09.876Z"
}