{
  "contractName": "CrowdsaleProperty",
  "abi": [
    {
      "constant": true,
      "inputs": [
        {
          "name": "caller",
          "type": "address"
        }
      ],
      "name": "hasEnded",
      "outputs": [
        {
          "name": "",
          "type": "bool"
        }
      ],
      "payable": false,
      "stateMutability": "view",
      "type": "function"
    },
    {
      "constant": true,
      "inputs": [
        {
          "name": "caller",
          "type": "address"
        },
        {
          "name": "beneficiary",
          "type": "address"
        },
        {
          "name": "value",
          "type": "uint256"
        }
      ],
      "name": "validPurchase",
      "outputs": [
        {
          "name": "",
          "type": "bool"
        }
      ],
      "payable": false,
      "stateMutability": "view",
      "type": "function"
    }
  ],
  "bytecode": "0x6060604052341561000f57600080fd5b61015e8061001e6000396000f30060606040526004361061004c576000357c0100000000000000000000000000000000000000000000000000000000900463ffffffff168063239e883a14610051578063270ae041146100a2575b600080fd5b341561005c57600080fd5b610088600480803573ffffffffffffffffffffffffffffffffffffffff1690602001909190505061011b565b604051808215151515815260200191505060405180910390f35b34156100ad57600080fd5b610101600480803573ffffffffffffffffffffffffffffffffffffffff1690602001909190803573ffffffffffffffffffffffffffffffffffffffff16906020019091908035906020019091905050610125565b604051808215151515815260200191505060405180910390f35b6000809050919050565b60006001905093925050505600a165627a7a72305820cd132fbd0e92f4adbc9b9e0c4986625ecc5950102831e2d7ea3431bd81b7ff150029",
  "source": "pragma solidity ^0.4.18;\n\nimport 'zeppelin-solidity/contracts/math/SafeMath.sol';\nimport './Crowdsale.sol';\n\ncontract CrowdsaleProperty {\n  using SafeMath for uint256;\n\n  //The defaults allow for not implementing dummy methods in derived classes\n  //The calls are properly directed to children when called from Crowdsale\n  function validPurchase(Crowdsale caller, address beneficiary, uint256 value) public view returns (bool) { return true; }\n  function hasEnded(Crowdsale caller) public view returns (bool) { return false; }\n}\n",
  "sourcePath": "/Users/alejo/Projects/Crypto/ZWtest/contracts/CrowdsaleProperty.sol",
  "compiler": {
    "name": "solc",
    "version": "0.4.18+commit.9cf6e910.Emscripten.clang"
  },
  "schemaVersion": "1.0.1",
  "updatedAt": "2017-12-03T21:45:57.193Z"
}