{
  "contractName": "FinalizableProperty",
  "abi": [
    {
      "constant": true,
      "inputs": [
        {
          "name": "caller",
          "type": "address"
        }
      ],
      "name": "hasEnded",
      "outputs": [
        {
          "name": "",
          "type": "bool"
        }
      ],
      "payable": false,
      "stateMutability": "view",
      "type": "function"
    },
    {
      "constant": true,
      "inputs": [
        {
          "name": "caller",
          "type": "address"
        },
        {
          "name": "beneficiary",
          "type": "address"
        },
        {
          "name": "value",
          "type": "uint256"
        }
      ],
      "name": "validPurchase",
      "outputs": [
        {
          "name": "",
          "type": "bool"
        }
      ],
      "payable": false,
      "stateMutability": "view",
      "type": "function"
    },
    {
      "constant": false,
      "inputs": [
        {
          "name": "caller",
          "type": "address"
        }
      ],
      "name": "finalize",
      "outputs": [],
      "payable": false,
      "stateMutability": "nonpayable",
      "type": "function"
    },
    {
      "constant": true,
      "inputs": [],
      "name": "isFinalized",
      "outputs": [
        {
          "name": "",
          "type": "bool"
        }
      ],
      "payable": false,
      "stateMutability": "view",
      "type": "function"
    },
    {
      "constant": true,
      "inputs": [],
      "name": "owner",
      "outputs": [
        {
          "name": "",
          "type": "address"
        }
      ],
      "payable": false,
      "stateMutability": "view",
      "type": "function"
    },
    {
      "constant": false,
      "inputs": [
        {
          "name": "newOwner",
          "type": "address"
        }
      ],
      "name": "transferOwnership",
      "outputs": [],
      "payable": false,
      "stateMutability": "nonpayable",
      "type": "function"
    },
    {
      "anonymous": false,
      "inputs": [],
      "name": "Finalized",
      "type": "event"
    },
    {
      "anonymous": false,
      "inputs": [
        {
          "indexed": true,
          "name": "previousOwner",
          "type": "address"
        },
        {
          "indexed": true,
          "name": "newOwner",
          "type": "address"
        }
      ],
      "name": "OwnershipTransferred",
      "type": "event"
    }
  ],
  "bytecode": "0x606060405260008060146101000a81548160ff021916908315150217905550336000806101000a81548173ffffffffffffffffffffffffffffffffffffffff021916908373ffffffffffffffffffffffffffffffffffffffff1602179055506105698061006d6000396000f300606060405260043610610078576000357c0100000000000000000000000000000000000000000000000000000000900463ffffffff168063239e883a1461007d578063270ae041146100ce5780634ef39b75146101475780638d4e4083146101805780638da5cb5b146101ad578063f2fde38b14610202575b600080fd5b341561008857600080fd5b6100b4600480803573ffffffffffffffffffffffffffffffffffffffff1690602001909190505061023b565b604051808215151515815260200191505060405180910390f35b34156100d957600080fd5b61012d600480803573ffffffffffffffffffffffffffffffffffffffff1690602001909190803573ffffffffffffffffffffffffffffffffffffffff16906020019091908035906020019091905050610246565b604051808215151515815260200191505060405180910390f35b341561015257600080fd5b61017e600480803573ffffffffffffffffffffffffffffffffffffffff16906020019091905050610253565b005b341561018b57600080fd5b6101936103ae565b604051808215151515815260200191505060405180910390f35b34156101b857600080fd5b6101c06103c1565b604051808273ffffffffffffffffffffffffffffffffffffffff1673ffffffffffffffffffffffffffffffffffffffff16815260200191505060405180910390f35b341561020d57600080fd5b610239600480803573ffffffffffffffffffffffffffffffffffffffff169060200190919050506103e6565b005b600060019050919050565b6000600190509392505050565b6000809054906101000a900473ffffffffffffffffffffffffffffffffffffffff1673ffffffffffffffffffffffffffffffffffffffff163373ffffffffffffffffffffffffffffffffffffffff161415156102ae57600080fd5b600060149054906101000a900460ff161515156102ca57600080fd5b8073ffffffffffffffffffffffffffffffffffffffff1663ecb70fb76000604051602001526040518163ffffffff167c0100000000000000000000000000000000000000000000000000000000028152600401602060405180830381600087803b151561033657600080fd5b6102c65a03f1151561034757600080fd5b50505060405180519050151561035c57600080fd5b61036461053b565b7f6823b073d48d6e3a7d385eeb601452d680e74bb46afe3255a7d778f3a9b1768160405160405180910390a16001600060146101000a81548160ff02191690831515021790555050565b600060149054906101000a900460ff1681565b6000809054906101000a900473ffffffffffffffffffffffffffffffffffffffff1681565b6000809054906101000a900473ffffffffffffffffffffffffffffffffffffffff1673ffffffffffffffffffffffffffffffffffffffff163373ffffffffffffffffffffffffffffffffffffffff1614151561044157600080fd5b600073ffffffffffffffffffffffffffffffffffffffff168173ffffffffffffffffffffffffffffffffffffffff161415151561047d57600080fd5b8073ffffffffffffffffffffffffffffffffffffffff166000809054906101000a900473ffffffffffffffffffffffffffffffffffffffff1673ffffffffffffffffffffffffffffffffffffffff167f8be0079c531659141344cd1fd0a4f28419497f9722a3daafe3b4186f6b6457e060405160405180910390a3806000806101000a81548173ffffffffffffffffffffffffffffffffffffffff021916908373ffffffffffffffffffffffffffffffffffffffff16021790555050565b5600a165627a7a723058200de4a316925c4dedf87df652f0654d1cb809e1e75813ce4847f18cea2fcf6f610029",
  "source": "pragma solidity ^0.4.18;\n\nimport 'zeppelin-solidity/contracts/math/SafeMath.sol';\nimport 'zeppelin-solidity/contracts/ownership/Ownable.sol';\nimport './CrowdsaleProperty.sol';\nimport './Crowdsale.sol';\n\ncontract FinalizableProperty is CrowdsaleProperty, Ownable {\n  using SafeMath for uint256;\n\n  bool public isFinalized = false;\n\n   event Finalized();\n\n   /**\n    * @dev Must be called after crowdsale ends, to do some extra finalization\n    * work. Calls the contract's finalization function.\n    */\n   function finalize(Crowdsale caller) onlyOwner public {\n     require(!isFinalized);\n     require(caller.hasEnded());\n\n     finalization();\n     Finalized();\n\n     isFinalized = true;\n   }\n\n   /**\n    * @dev Can be overridden to add finalization logic. The overriding function\n    * should call super.finalization() to ensure the chain of finalization is\n    * executed entirely.\n    */\n   function finalization() internal {\n   }\n\n}\n",
  "sourcePath": "/Users/alejo/Google Drive/Projects/ZWtest/composite-crowdsale/contracts/FinalizableProperty.sol",
  "compiler": {
    "name": "solc",
    "version": "0.4.18+commit.9cf6e910.Emscripten.clang"
  },
  "schemaVersion": "1.0.1",
  "updatedAt": "2017-12-03T20:33:05.041Z"
}