{
  "contractName": "WhitelistedProperty",
  "abi": [
    {
      "constant": true,
      "inputs": [
        {
          "name": "purchaser",
          "type": "address"
        },
        {
          "name": "value",
          "type": "uint256"
        }
      ],
      "name": "validPurchase",
      "outputs": [
        {
          "name": "",
          "type": "bool"
        }
      ],
      "payable": false,
      "stateMutability": "view",
      "type": "function"
    },
    {
      "constant": true,
      "inputs": [
        {
          "name": "who",
          "type": "address"
        }
      ],
      "name": "isWhitelisted",
      "outputs": [
        {
          "name": "",
          "type": "bool"
        }
      ],
      "payable": false,
      "stateMutability": "view",
      "type": "function"
    },
    {
      "constant": true,
      "inputs": [
        {
          "name": "",
          "type": "uint256"
        }
      ],
      "name": "whitelist",
      "outputs": [
        {
          "name": "",
          "type": "address"
        }
      ],
      "payable": false,
      "stateMutability": "view",
      "type": "function"
    },
    {
      "constant": true,
      "inputs": [],
      "name": "hasEnded",
      "outputs": [
        {
          "name": "",
          "type": "bool"
        }
      ],
      "payable": false,
      "stateMutability": "view",
      "type": "function"
    },
    {
      "inputs": [
        {
          "name": "_whitelist",
          "type": "address[]"
        }
      ],
      "payable": false,
      "stateMutability": "nonpayable",
      "type": "constructor"
    }
  ],
  "bytecode": "0x6060604052341561000f57600080fd5b6040516103f03803806103f0833981016040528080518201919050508060009080519060200190610041929190610048565b5050610115565b8280548282559060005260206000209081019282156100c1579160200282015b828111156100c05782518260006101000a81548173ffffffffffffffffffffffffffffffffffffffff021916908373ffffffffffffffffffffffffffffffffffffffff16021790555091602001919060010190610068565b5b5090506100ce91906100d2565b5090565b61011291905b8082111561010e57600081816101000a81549073ffffffffffffffffffffffffffffffffffffffff0219169055506001016100d8565b5090565b90565b6102cc806101246000396000f300606060405260043610610062576000357c0100000000000000000000000000000000000000000000000000000000900463ffffffff1680632a6033bd146100675780633af32abf146100c15780637ebd1b3014610112578063ecb70fb714610175575b600080fd5b341561007257600080fd5b6100a7600480803573ffffffffffffffffffffffffffffffffffffffff169060200190919080359060200190919050506101a2565b604051808215151515815260200191505060405180910390f35b34156100cc57600080fd5b6100f8600480803573ffffffffffffffffffffffffffffffffffffffff169060200190919050506101b5565b604051808215151515815260200191505060405180910390f35b341561011d57600080fd5b6101336004808035906020019091905050610259565b604051808273ffffffffffffffffffffffffffffffffffffffff1673ffffffffffffffffffffffffffffffffffffffff16815260200191505060405180910390f35b341561018057600080fd5b610188610298565b604051808215151515815260200191505060405180910390f35b60006101ad836101b5565b905092915050565b6000806000809150600090505b60008054905081101561024f576000818154811015156101de57fe5b906000526020600020900160009054906101000a900473ffffffffffffffffffffffffffffffffffffffff1673ffffffffffffffffffffffffffffffffffffffff168473ffffffffffffffffffffffffffffffffffffffff16141561024257600191505b80806001019150506101c2565b8192505050919050565b60008181548110151561026857fe5b90600052602060002090016000915054906101000a900473ffffffffffffffffffffffffffffffffffffffff1681565b6000809050905600a165627a7a723058205b183693245846600d903ab79f060685b1f5ca4df41ba27a660fbd17fd6c98f30029",
  "source": "pragma solidity ^0.4.18;\n\nimport 'zeppelin-solidity/contracts/math/SafeMath.sol';\nimport './ValidationProperty.sol';\n\n// Only whitelisted addresses can be beneficiaries in token purchases.\n// --Alternative: only whitelisted can initiate purchases--\n\ncontract WhitelistedProperty is ValidationProperty{\n  using SafeMath for uint256;\n\n  address[] public whitelist;\n\n  function WhitelistedProperty(address[] _whitelist) public {\n\n    whitelist = _whitelist;\n  }\n\n  //this one needed internal -> public\n  function validPurchase(address purchaser, uint256 value) public view returns (bool) {\n    return isWhitelisted(purchaser);\n  }\n\n  function isWhitelisted(address who) public view returns (bool) {\n    bool _whitelisted = false;\n    for(uint i = 0; i < whitelist.length; i++){\n      if(who == whitelist[i]){\n        _whitelisted = true;\n      }\n    }\n    return _whitelisted;\n  }\n\n}\n",
  "sourcePath": "/Users/alejo/Projects/Crypto/ZWtest/contracts/WhitelistedProperty.sol",
  "compiler": {
    "name": "solc",
    "version": "0.4.18+commit.9cf6e910.Emscripten.clang"
  },
  "schemaVersion": "1.0.1",
  "updatedAt": "2017-12-08T22:11:09.885Z"
}