{
  "contractName": "WhitelistedProperty",
  "abi": [
    {
      "constant": true,
      "inputs": [
        {
          "name": "caller",
          "type": "address"
        }
      ],
      "name": "hasEnded",
      "outputs": [
        {
          "name": "",
          "type": "bool"
        }
      ],
      "payable": false,
      "stateMutability": "view",
      "type": "function"
    },
    {
      "constant": true,
      "inputs": [
        {
          "name": "caller",
          "type": "address"
        },
        {
          "name": "beneficiary",
          "type": "address"
        },
        {
          "name": "value",
          "type": "uint256"
        }
      ],
      "name": "validPurchase",
      "outputs": [
        {
          "name": "",
          "type": "bool"
        }
      ],
      "payable": false,
      "stateMutability": "view",
      "type": "function"
    },
    {
      "constant": true,
      "inputs": [
        {
          "name": "",
          "type": "uint256"
        }
      ],
      "name": "whitelist",
      "outputs": [
        {
          "name": "",
          "type": "address"
        }
      ],
      "payable": false,
      "stateMutability": "view",
      "type": "function"
    },
    {
      "inputs": [
        {
          "name": "_whitelist",
          "type": "address[]"
        }
      ],
      "payable": false,
      "stateMutability": "nonpayable",
      "type": "constructor"
    }
  ],
  "bytecode": "0x6060604052341561000f57600080fd5b6040516103c83803806103c8833981016040528080518201919050508060009080519060200190610041929190610048565b5050610115565b8280548282559060005260206000209081019282156100c1579160200282015b828111156100c05782518260006101000a81548173ffffffffffffffffffffffffffffffffffffffff021916908373ffffffffffffffffffffffffffffffffffffffff16021790555091602001919060010190610068565b5b5090506100ce91906100d2565b5090565b61011291905b8082111561010e57600081816101000a81549073ffffffffffffffffffffffffffffffffffffffff0219169055506001016100d8565b5090565b90565b6102a4806101246000396000f300606060405260043610610057576000357c0100000000000000000000000000000000000000000000000000000000900463ffffffff168063239e883a1461005c578063270ae041146100ad5780637ebd1b3014610126575b600080fd5b341561006757600080fd5b610093600480803573ffffffffffffffffffffffffffffffffffffffff16906020019091905050610189565b604051808215151515815260200191505060405180910390f35b34156100b857600080fd5b61010c600480803573ffffffffffffffffffffffffffffffffffffffff1690602001909190803573ffffffffffffffffffffffffffffffffffffffff16906020019091908035906020019091905050610193565b604051808215151515815260200191505060405180910390f35b341561013157600080fd5b6101476004808035906020019091905050610239565b604051808273ffffffffffffffffffffffffffffffffffffffff1673ffffffffffffffffffffffffffffffffffffffff16815260200191505060405180910390f35b6000809050919050565b6000806000809150600090505b60008054905081101561022d576000818154811015156101bc57fe5b906000526020600020900160009054906101000a900473ffffffffffffffffffffffffffffffffffffffff1673ffffffffffffffffffffffffffffffffffffffff168573ffffffffffffffffffffffffffffffffffffffff16141561022057600191505b80806001019150506101a0565b81925050509392505050565b60008181548110151561024857fe5b90600052602060002090016000915054906101000a900473ffffffffffffffffffffffffffffffffffffffff16815600a165627a7a72305820fd614b7d5060c71750c97b0b0c89edbb2a26c835386f068878c584a7b22f7b2a0029",
  "source": "pragma solidity ^0.4.18;\n\nimport 'zeppelin-solidity/contracts/math/SafeMath.sol';\nimport './CrowdsaleProperty.sol';\n\n// Only whitelisted addresses can be beneficiaries in token purchases.\n// --Alternative: only whitelisted can initiate purchases--\n\ncontract WhitelistedProperty is CrowdsaleProperty{\n  using SafeMath for uint256;\n\n  address[] public whitelist;\n\n  function WhitelistedProperty(address[] _whitelist) public {\n   whitelist = _whitelist;\n  }\n\n  //this one needed internal -> public\n  function validPurchase(Crowdsale caller, address beneficiary, uint256 value) public view returns (bool) {\n     bool authorizedBuyer = false;\n     //This can probably be improved with a mapping, without traversing the list.\n     for(uint i = 0; i < whitelist.length; i++){\n       if(beneficiary == whitelist[i]){\n         authorizedBuyer = true;\n       }\n     }\n   return authorizedBuyer;\n   }\n\n}\n",
  "sourcePath": "/Users/alejo/Projects/Crypto/ZWtest/contracts/WhitelistedProperty.sol",
  "compiler": {
    "name": "solc",
    "version": "0.4.18+commit.9cf6e910.Emscripten.clang"
  },
  "schemaVersion": "1.0.1",
  "updatedAt": "2017-12-03T21:45:57.202Z"
}